:020000040800F2
:1000000030060020ED010008C13B0008152F000854
:10001000BD3B0008A5070008DD5E000800000000E9
:10002000000000000000000000000000D15B00089C
:10003000A907000800000000C53B0008D55B0008C8
:10004000070200080702000807020008070200086C
:10005000070200080702000807020008070200085C
:10006000070200080702000807020008070200084C
:10007000070200080702000807020008070200083C
:10008000070200080000000007020008070200083D
:10009000070200080702000807020008070200081C
:1000A0000702000807020008895C00080702000830
:1000B00007020008BD5D00080702000807020008EB
:1000C00007020008070200080702000807020008EC
:1000D00007020008070200080702000807020008DC
:1000E00007020008070200080702000807020008CC
:1000F00007020008070200080702000800000000CD
:1001000000000000070200080000000007020008CD
:1001100007020008000000000702000807020008AC
:10012000070200080702000807020008070200088B
:10013000070200080000000000000000070200089D
:10014000070200080702000800000000000000008D
:10015000000000000000000000000000000000009F
:10016000000000000000000000000000070200087E
:10017000070200080000000000000000000000006E
:10018000000000000702000800000000000000005E
:10019000000000000000000000000000000000005F
:1001A000000000000000000007020008070200082D
:1001B000070200080702000807020008000000000C
:1001C000000000000702000800000000000000001E
:1001D0000702000807020008DFF80CD000F03CFA24
:1001E0000048004749600008300600200648804764
:1001F00006480047FEE7FEE7FEE7FEE7FEE7FEE70C
:10020000FEE7FEE7FEE7FEE7755C0008D90100089F
:10021000D2B201E000F8012B491EFBD27047002248
:10022000F6E710B513460A4604461946FFF7F0FFF5
:10023000204610BD00F0004230F000400AD0C10D51
:1002400001F56071C0F3160042EA0151C20840078F
:100250001143704700200146704730B50B460146F8
:1002600000202022012409E021FA02F59D4205D355
:1002700003FA02F5491B04FA02F52844151EA2F1FF
:100280000102F1DC30BD2DE9F05F05460020924609
:100290009B4688460646814640241BE02846414648
:1002A0004746224600F0FFF953465A46C01A91418C
:1002B00010D311461846224600F0E6F92D1A67EBD6
:1002C00001084F4622460120002100F0DDF917EB1E
:1002D00000094E41201EA4F10104DFDC48463146EE
:1002E0002A464346BDE8F09F2DE9FE4F804681EA4D
:1002F0000300C00F0C46009021F0004123F00045A0
:10030000B8EB0200A94105D24046214690461C4662
:100310000B46024623F00040104347D0270DC7F399
:100320000A00C3F30A510290401A019040286BDA88
:10033000C3F3130040F4801B0098924620B10023C1
:10034000D2EB030A63EB0B0B01985946C0F1400254
:10035000504600F099F906460D4650465946019A16
:1003600000F0B1F910EB08006141002487EA115256
:1003700084EAE7731A4340D0009A62B3019A012AD3
:100380004FEA075215DC001B61EB02014FF00042FF
:1003900002EA0752CDE90042001C41F580113246C5
:1003A0002B4600F0B1F903B0BDE8F08F404621467E
:1003B000F9E7001B61EB0201001C41F580130018F6
:1003C0005B412018A2F5001747EB030140EAD57006
:1003D000B6196D4111E06D084FEA360645EAC07561
:1003E0004FEA0752001B61EB0201001C41F580112E
:1003F00049084FEA30000019514132462B4603B0FC
:10040000BDE8F04F00F071B90098012240000023D0
:10041000D0EB020263EBE073009821464FEAE074F0
:10042000B8EB000061EB0401E9E783F000435BE710
:1004300081F0004158E72DE9FE4F81EA030404F002
:10044000004421F0004100944FF0000B23F00043E2
:1004500050EA01045ED052EA03045BD0C3F30A54AD
:10046000C1F30A552C44A4F2F3340194A0FB0254C6
:10047000C1F3130141F48011C3F3130343F4801358
:1004800001FB024400FB034E840A970A44EA8154AC
:1004900047EA8357A4FB076802958D0A05FB078589
:1004A0004FEA932C04FB0C542705029D4FEA065893
:1004B00047EA1637B5EB08056EEB070C870E920E70
:1004C00047EA811742EA8312A7FB0201B6EB0B0150
:1004D00064EB00042B0D43EA0C335E1844EB1C5014
:1004E000DA465146E7FB0201C5F313044FEA0B332A
:1004F00043EA14534FEA0432019C43EA0603A4F191
:100500000C040294009CCDE900B400F0FDF803B0A7
:10051000BDE8F08F00200146F9E72DE9F04D81EAB2
:10052000030404F0004B21F0004514464FF0000A8C
:1005300023F0004150EA050220D054EA01021DD008
:10054000C5F30A570246C5F31303C1F31300C1F301
:100550000A5640F4801543F48013A7EB0608101BDD
:10056000D64608F2FD3873EB050002D308F1010806
:1005700001E092185B41B8F1000F03DA0020014658
:10058000BDE8F08D00204FF48011064684460EE051
:10059000171B73EB050705D3121B63EB050306431B
:1005A0004CEA010C49084FEA300092185B4150EACE
:1005B0000107EDD152EA030012D082EA040083EA77
:1005C0000501084305D0101BAB4106D201220023D0
:1005D00006E000224FF0004302E06FF001025310EA
:1005E0001AEB06004CEB085110EB0A0041EB0B0133
:1005F000BDE8F04D00F079B8C1F30A52C1F3130120
:1006000040F2FF3341F480119A4202DA00200146A1
:10061000704740F233439A42A2F2334202DC524224
:1006200000F041B800F030B830B5041E71F100049C
:1006300004DB4FF00044404264EB0101141E73F1EF
:10064000000405DB1C464FF00043524263EB0403F9
:10065000994208BF904230BD1CB509480090094836
:1006600001900546009C06E0E06840F0010394E834
:10067000070098471034AC42F6D3FFF7B1FD0000F5
:100680005881000878810008202A04DB203A00FA0B
:1006900002F1002070479140C2F1200320FA03F3D9
:1006A000194390407047202A04DB203A21FA02F0D7
:1006B0000021704721FA02F3D040C2F1200291409C
:1006C000084319467047202A06DBCB17203A41FA27
:1006D00002F043EAE07306E041FA02F3D040C2F1CF
:1006E0002002914008431946704710B5141E73F15B
:1006F000000408DA401C41F1000192185B411A43E2
:1007000001D120F0010010BD2DE9F04D92469B462D
:1007100011B1B1FA81F202E0B0FA80F220329046D3
:10072000FFF7B2FF04460F4640EA0A0041EA0B0118
:1007300053465A46084313D0114653EA010019D0D4
:10074000C8F140025046FFF7AEFF05460E46504640
:1007500059464246FFF798FF084305D0012004E0C0
:1007600020463946BDE8F08D0020054346EAE07694
:100770002C4337430A986305E40AA0EB08000022E3
:10078000FD0A44EA47540A3002D500200146E9E751
:10079000010510196941DDE9084500196941BDE805
:1007A000F04DA2E7FEE7000070470000EFF3108075
:1007B00072B600BFFEE7000090F85820012A04BF7F
:1007C0000220704770B582B0002201920092026848
:1007D000B2F1A04F30D140F208324FF6006C4FF624
:1007E0000055C5F20002CFF6FF7CCFF6FF7552F838
:1007F0000C40535923435B071ED4D1F800E0136823
:10080000BEF1000F23F4604424D04B6890F83860A8
:1008100043EA463323431360535952F80C60334381
:10082000DB0723D1136840F61F768968B343194369
:1008300041EA0E0119E000BFC16D41F02001C16520
:100840000121002280F8582002B0BDE8704008461F
:10085000704700BF1460515952F80C301943C90752
:1008600004D1116840F61F73994311600021E8E735
:10087000F0B581B00022009290F85820012A03D1EF
:100880000221084601B0F0BD0123076880F8583006
:10089000BB685B0734D4D1E900351F26C5F30124BA
:1008A00007EB8404226B05F01F05AE40C3F384639D
:1008B000B243AB401A432263BA68BB6802F0040239
:1008C00003F00803D21840F0BC800A6807F1140353
:1008D0000426C2F34064D1F808E006EAD25C53F87B
:1008E0002440C2F304550722AA40BEF1004F24EA77
:1008F00002040BD143F80C401A6842F000430DE0AB
:10090000C16D41F02001C165012178E10EFA05F2C7
:10091000224343F80C201A6822F000437B61D1E99E
:100920000435FC68042B5FD13A6E3A6E0B68C2F353
:10093000846293FAA3F6C3F3846C6FF3DF43B6FAD1
:1009400086F5002B2C464FF6FF7E08BF6446A24278
:10095000C0F2070E0CD13A6E22F000423A660A68E5
:1009600002EA0E03C2F3846C92FAA2F2B2FA82F5A2
:100970007A6E7A6E002BC2F384622C4608BF6446FE
:10098000A2420CD17A6E22F000427A660A6802EA2C
:100990000E03C2F3846C92FAA2F2B2FA82F5BA6E36
:1009A000BA6E002BC2F384622C4608BF6446A24292
:1009B0000CD1BA6E22F00042BA660A6802EA0E034F
:1009C000C2F3846C92FAA2F2B2FA82F5FA6EFA6E6F
:1009D000002BC2F3846208BF6546AA4231D1FA6E89
:1009E00022F00042FA662CE0062202EA940205FA9E
:1009F00002FC0E6807F1600555F823404FF2000233
:100A0000C0F2FF3206F0F846224046EA0C063243B6
:100A100042F0004245F823200A698B6955F82260AC
:100A200026F08076334345F822300A690B7F55F86B
:100A30002260012B26F0007608BF06F1007645F80B
:100A40002260BA680D68D20750D1CA68D7F8B06082
:100A50002B466FF3DF4326EA030C4FF6FF7602F0D6
:100A60001804C0F20706E64000242E40C4F27F04BA
:100A700046EA0C06A242C7F8B06037D193B195FAA6
:100A8000A5F2B2FA82F2013202F01E03092B02F043
:100A90001F0310D801229A4003EB430342EA035399
:100AA00015E000BF012202EB956202F01E030A2B43
:100AB00002F01F03EED3012200269A4003EB43030A
:100AC000CFF6206606EB03531A4342F00073C3F3DC
:100AD000406607EB86068A687569C3F304530724EA
:100AE0009C40A5439A402A4372610D680021C8F2D8
:100AF00008010D4200F0828040F2083CC5F2000C73
:100B0000DCF800400021CCF221318D4204F0E07E7F
:100B100004D01021C9F2C0018D4241D1B7F1A04FDC
:100B20004FF0000108BF14F4000268D1DCF8001097
:100B300042F6635221F0E07141EA0E0141F40001F6
:100B4000CCF8001040F22001C2F200010968C0F2A6
:100B50003E528909A1FB0212910901EB41010C22CD
:100B600002EB810100910099002947D000990139D9
:100B700000910099002941D0009901390091009914
:100B8000E1B30099013900910099B9B30099013995
:100B90000091009900294FF00001E7D12FE000BF3C
:100BA0000021CCF252718D4210D10021B1EB1E6FA9
:100BB0000CD1ACF502718F4220D0DCF8001021F08E
:100BC000E07141EA0E0141F0807115E0ACF502716F
:100BD0008F424FF0000112D00022CCF684329542B1
:100BE00008BF14F480020AD1DCF8001021F0E07193
:100BF00041EA0E0141F48001CCF8001000210022EE
:100C000080F85820084601B0F0BD00000068006C74
:100C100070470000B0B582B00446002001904CB18E
:100C2000E06D58B121688868800012D48868C000DF
:100C300019D54CE0012002B0B0BD00BF204600F045
:100C40000FF90020206684F8580021688868800029
:100C5000ECD588684FF6C072C5F6FF721040886008
:100C60008868C00033D44FF6C0728868C5F6FF723A
:100C700002F18052104000F18050886040F2200064
:100C8000C2F20000006842F663528009C0F23E5290
:100C9000A0FB02029009022202EB400001900198A1
:100CA000A8B100BF019801380190019878B101986E
:100CB00001380190019850B10198013801900198D4
:100CC00028B101980138019001980028EAD188687C
:100CD000C00009D4E06D40F01000E065206E40F0E7
:100CE00001002066012000E000208A68E36D02F028
:100CF000040203F01003D218E26D77D122F481725E
:100D00000232E2658A68D2071AD140F2083C4FF6F7
:100D100000534FF60062C5F2000CCFF6FF73CFF61A
:100D2000FF725CF803305CF802201A43D20707D147
:100D30006268DCF8003023F47C131A43CCF80020FE
:100D400094F81DE0E36BD4E902C243EA4E331A4340
:100D500094F8243042EA0C02012B42EA034207D104
:100D6000D4F828C00023CFF6FE7303EB4C431A439C
:100D7000E36A33B1D4F830C003F4787343EA0C0368
:100D80001A43D1F80CC044F20703CFF6F07303EA1C
:100D90000C031A43CA600A69636B22F040621A436B
:100DA0000A618A688B6802F0040203F00803D21813
:100DB00045D194F83820237F520042EA833CCB6827
:100DC00044F2020223EA020242EA0C02CA602269E9
:100DD0000B698AB143F480330B61D1F8C0C043F68C
:100DE000FF732CEA03031A430EE000BF42F0100128
:100DF0000120E16502B0B0BD23F480320A61D1F870
:100E0000C02043F6FF739A43C1F8C02094F84030E5
:100E10000A69012B10D140F2FD7322EA030CD4E9D8
:100E20001132D4E913E543EA0C031A4342EA0E02F5
:100E30002A4342F0010201E022F001020A616269E4
:100E40000B6B012A23F00F0202D1236A013B1A43E4
:100E50000A63E16D012262F30101E16502B0B0BDF8
:100E600080B586B0006840F20011C5F200018842EA
:100E70004FF000010591CDE90311CDE9011123D017
:100E8000B0F1A04F4CD140F26401C2F200010A68F7
:100E900041F24C00C4F20200531C0B6042B90168DD
:100EA00041F400510160016801F400510091009982
:100EB000016841F002010160006800F0020000904A
:100EC00000984FF480501FE040F26401C2F200012C
:100ED0000A6841F24C00C4F20200531C0B6042B994
:100EE000016841F400510160016801F40051009172
:100EF0000099016841F002010160006800F0020001
:100F0000009000984FF400400190032002900020D0
:100F1000039040F20040C4F6000001A900F0C0F8C0
:100F200006B080BD2DE9F04140F20017C5F2000780
:100F3000D7F80862016804468868400703D494F82B
:100F40005800012802D10220BDE8F081012084F878
:100F5000580088684FF6C078C007C7F6FF7837D1C9
:100F6000886808F17F0210420ED0E06D40F010005A
:100F7000E065206E40F001002066002084F85800F3
:100F80000120BDE8F08100BF886800EA080040F059
:100F90000100886000F070F921680A68D20717D153
:100FA000054602E00868C00712D18868C00705D16D
:100FB000886800EA080040F00100886000F05CF9F1
:100FC000401B21680328EDD30868C007EAD1CCE7AD
:100FD000E06D40F60173984306F01F0200F580763D
:100FE0000846B94208BF4FF0A040431AB3FA83F352
:100FF0005B09E66500D11AB9E76D27F48017E7654C
:10100000E66D0027F6044FF0000644BF266E26F07A
:10101000060626661C260E6084F8587043B9092A15
:1010200018D8012303FA02F240F221231A4211D008
:10103000C868800104D5E06D012262F30D30E065DF
:10104000886800EA080040F0040088600020BDE8DD
:10105000F08100BFE16D41F48011E165C06880015D
:101060005CBF0020BDE8F081E06D012161F30D302F
:10107000E0650020BDE8F081B0B5044600F0FCF862
:10108000054640F21400C2F200004068611C18BF1F
:10109000044400BF00F0F0F8401BA042FAD3B0BDFA
:1010A0000A68002A08BF70472DE9F04F82B000F1AE
:1010B0003847860546EA972741F20046C4F60006FF
:1010C0000623B04208BF0523052F38BF3B46002446
:1010D0004FF0010900260027009309E00A68013754
:1010E00032FA07F306F1020604F1040400F0B480BA
:1010F00009FA07FB12EA0B08F0D0D1F804C0BCF1E2
:10110000120F00F2A38009FA0CF212F0061F00F091
:101110009D8082680323D1F80CA003FA06FE22EA20
:101120000E020AFA06F52A43826045684FEA1C134C
:1011300025EA0B05BB404FEA47096FEA0E0E2B4329
:101140004360C3688D6803EA0E0305FA09F52B4373
:101150004CF01005122DC36015D16FF0030202EAA6
:101160005703034404F01C020F25D3F820C005FAEE
:1011700002FA0D692CEA0A0C05FA02F242EA0C02A4
:101180001A62D1F804C002680CF0030302EA0E02EE
:1011900003FA09F31A435FEACC034FF00109026036
:1011A0009CD541F26003C4F202031A6840F2004E7B
:1011B00042F001021A601A68C4F2010E02F0010244
:1011C0000192019A27F003024FF6084A7244CFF6C3
:1011D000FF7A52F80AC004F00C050F23AB402CEA4A
:1011E000030C009B03FA05F545EA0C0342F80A30AC
:1011F000DEF800C04B684CEA0805DA0358BF2CEA59
:101200000805CEF80050DEF804C09A034CEA080541
:1012100058BF2CEA0805CEF80450DEF808C0DA0200
:101220004CEA080558BF2CEA080540F20C4CCEF8F1
:101230000850C4F2010CDCF800209B0242EA0805C9
:1012400058BF22EA0805CCF8005047E70322B24015
:101250006FEA020EB14674E702B0BDE8F04F704786
:101260000069084018BF0120704700001823002AB9
:1012700008BF2823C150704740F22C20C2F2000062
:101280000068704740F2140040F22C21C2F20000C6
:10129000C2F2000140680A6810440860704700000C
:1012A00080B5032000F08AF8002000F009F800283B
:1012B0001CBF012080BD00F029F8002080BD000087
:1012C00070B540F21406C2F200067168E1B104463E
:1012D00040F22000C2F200004FF47A720068B2FBC4
:1012E000F1F1B0FBF1F000F041FE0F2C4FF00105E1
:1012F00008D838B94FF0FF3021460022002500F011
:1013000031F83460284670BD012070BD82B041F2D2
:101310005800C4F20200816841F0010181608168D7
:1013200001F0010101910199016841F080510160D2
:10133000006800F080500090009802B000F0E2B821
:10134000002848BF704700F01F01012202FA01F196
:101350001C2202EAD0004EF20012CEF200028150AE
:101360007047000010B54EF60C5CCEF2000CDCF8B5
:101370000030C3F3022E8EF00704042C28BF04248F
:10138000BEF103034FF0FF3E0EFA04F438BF002312
:10139000A14399400EFA03F39A43114300F00F0260
:1013A00000F160430901043A03F5644362440028F4
:1013B00048BF02F10C03197010BD00004EF60C512D
:1013C000CEF200010A684FF6FF031A4060F30A22CA
:1013D00042F0806040F0FD7008607047B0F5007F1B
:1013E00042D0002840F0808047F21400C4F2000090
:1013F00050F8141CC26E01F4C06122F48072B1F581
:10140000806FC2662ED150F8141C012262F34A216B
:1014100040F8141C40F22001C2F200010968322297
:1014200051434DF68362C4F21B32A1FB0212910CB0
:101430000268520511D54A1C0FD0026852050CD51E
:1014400059B10268520508D5012906D00268520533
:1014500003D50229A1F10401EAD10068400544BF87
:10146000032070470020704747F21400C4F20000C8
:1014700050F8141CC26E01F4C06142F48072B1F5E0
:10148000806FC266EED150F8141C012262F34A212B
:1014900040F8141C40F22001C2F200010968322217
:1014A00051434DF68362C4F21B32A1FB0212910C30
:1014B0000268520511D54A1C0FD0026852050CD59E
:1014C00059B10268520508D5012906D002685205B3
:1014D00003D50229A1F10401EAD10068400544BF07
:1014E00003207047BEE700BF47F21400C4F20000BB
:1014F00050F8141C022262F34A2140F8141C002008
:101500007047000047F20800C4F20000016841F48F
:1015100080410160704700002DE9F04182B004462F
:10152000807841F288060007C4F2020602D4002047
:101530002FE000BF56F8300C5FEAC0080BD456F815
:10154000300C40F0805046F8300C56F8300C00F06B
:1015500080500190019847F20007C4F200073868F4
:1015600040F480703860FFF787FE05463868C00594
:1015700000F1D680FFF780FE401B0228F6D9032039
:10158000B8F1000F05D456F8301C21F0805146F810
:10159000301C2168CA0713D18A0719D44A071FD4FF
:1015A0000A0725D48A062BD44A0631D40A0637D432
:1015B000CA053DD48A0543D44A0549D457E000BF43
:1015C0003268636822F003021A4332608A07E5D565
:1015D0003268A36822F00C021A4332604A07DFD552
:1015E0003268E36822F030021A4332600A07D9D524
:1015F0003268236922F0C0021A4332608A06D3D5CA
:101600003268636922F440621A4332604A06CDD5DB
:101610003268A36922F440521A4332600A06C7D5E1
:101620003268E36922F440421A433260CA05C1D5E8
:101630003268236A22F440321A4332608A05BBD5ED
:101640003268636A22F440221A4332604A050ED59A
:101650003268A36A22F440121A43B3F5801F326045
:1016600005D156F87C2C42F4801246F87C2C0A05F1
:101670000ED53268E36A22F440021A43B3F5800FB4
:10168000326005D156F87C2C42F4801246F87C2C4E
:10169000CA040ED53268236B22F040721A43B3F1AC
:1016A000807F326005D156F87C2C42F4801246F8D7
:1016B0007C2C8A040ED53268636B22F040621A4398
:1016C000B3F1006F326005D156F87C2C42F48012E1
:1016D00046F87C2C4A040ED53268A36B22F0406297
:1016E0001A43B3F1006F326005D156F87C2C42F4F6
:1016F000801246F87C2C09040ED53168E26B21F08B
:1017000040511143B2F1805F316005D156F87C1C25
:1017100041F4803146F87C1C02B0BDE8F08100BF86
:10172000B06810F4407010D0216C88420BD0B068C3
:10173000B16820F4407041F48031B160B16821F4A7
:101740008031B160B060C0070CD1B068216C20F46A
:1017500040700843B0600020B8F1000F3FF519AFAA
:1017600011E700BFFFF788FD054641F2883700BF4B
:10177000B0688007E9D4FFF77FFD401BB842F7D976
:10178000FDE600002DE9F047002865D042F2000A8E
:10179000C4F2020A0446DAF800000D4600F00F0019
:1017A00088420CD2DAF8000020F00F002843CAF873
:1017B0000000DAF8000000F00F00A8424CD12168C8
:1017C00041F20808C807C4F2020803D1880740F1B3
:1017D000D480B9E0606802283AD0032840D158F894
:1017E000082C920138D5D8F80420D8F8043042F2F9
:1017F0000046C3F3031302F00302D8F80470013368
:10180000C0F2F406032A04BF41F20026C0F27A06B1
:10181000B6FBF3F2D8F80430C7F306277A43C3F3D4
:101820004163022707EB4303B2FBF3F24BF20043A1
:10183000C0F2C4439A425DD9D8F8002012F0F00FEC
:101840004DD0890756D5A168002953D147E000BF84
:1018500058F8081C890307D40120BDE8F08700BFB1
:1018600058F8081C4905F7D5D8F8001001F00C010C
:1018700004293FD0D8F8001001F00C01082939D014
:10188000D8F8001001F00C010C2933D1D8F804105D
:10189000D8F8042042F20047C2F3031201F003011A
:1018A000D8F804300132C0F2F407032904BF41F232
:1018B0000027C0F27A07B7FBF2F1D8F80420C3F38F
:1018C00006235943C2F34162022303EB4202B1FBF8
:1018D000F2F14BF20042C0F2C44291420AD9D8F868
:1018E0000010082262F307114FF00109C8F8001038
:1018F00002E000BF4FF00009D8F8001021F003010A
:101900000843C8F80000FFF7B7FC064641F28837E5
:10191000D8F80000616800F00C00B0EB810F07D030
:10192000FFF7AAFC801BB842F2D90320BDE8F0877C
:101930002168880708D4B9F1000F1ED0D8F800003C
:1019400020F0F00017E000BF480705D5D8F80000E8
:1019500040F4E060C8F80000080706D5D8F8000099
:10196000072262F30D20C8F80000D8F80000A26832
:1019700020F0F0001043C8F80000DAF8000000F092
:101980000F00A8421BD9DAF8000020F00F0028430E
:10199000CAF80000FFF770FC064641F2883700BF26
:1019A000DAF8000000F00F00A84207D0FFF764FC4F
:1019B000801BB842F4D90320BDE8F08721684807AE
:1019C00007D5D8F80000E26820F4E0601043C8F8BA
:1019D0000000080708D5D8F80000216920F46050FD
:1019E00040EAC100C8F80000D8F8000042F2004107
:1019F000C0F2F40100F00C00042808462DD0D8F8FD
:101A0000000000F00C00082841F20020C0F27A002B
:101A100023D0D8F8002002F00C020C2A1CD1D8F8F0
:101A20000420D8F8043002F00302C3F30313D8F8FB
:101A300004700133032A08BF0146B1FBF3F0D8F864
:101A40000410C7F30627C1F341610222784302EB79
:101A50004101B0FBF1F000E00020D8F8001046F69C
:101A60002C72C1F30311C0F60002515C40F2200257
:101A700001F01F0120FA01F140F21400C2F200004F
:101A80000068C2F200021160BDE8F047FFF718BC21
:101A9000002804BF012070472DE9F04182B00446C0
:101AA000007841F20006C007C4F202061ED1207879
:101AB00080073DD42078000764D42078400700F1E7
:101AC00087802078800600F1D980E069002800F046
:101AD000C581B16801F00C010C2940F03181012869
:101AE00040F08481012002B0BDE8F081B06800F0D0
:101AF0000C01F068082961D0032281F00C0122EA70
:101B000000000844B0FA80F0400957D16068B0F591
:101B1000803F07D0B0F5A02F40F0E480306840F45B
:101B200080203060306840F480303060E5E000BFF5
:101B3000B068F16800F00C00042871D001F00301D6
:101B400080F00C0081F002010844B0FA80F04009F6
:101B500066D1E1683068002900F0E08040F48070D0
:101B60003060FFF789FB05463068400500F1FE80D4
:101B7000FFF782FB401B0228F6D9032002B0BDE824
:101B8000F08100BF6169D6F89400002900F09480CC
:101B900040F00100C6F89400FFF76EFB054600BF59
:101BA000D6F8940080073FF588AFFFF765FB401B30
:101BB0000228F5D9032002B0BDE8F0813068800327
:101BC0007FF575AF606800287FF471AF3EE000BF1D
:101BD000B06D5FEAC00808D4B06D40F08050B065C9
:101BE000B06D00F080500190019847F20007C4F2F8
:101BF00000073868C0052DD4386840F4807038601C
:101C0000FFF73AFB054600BF3868C00522D4FFF74E
:101C100033FB401B0228F7D9032002B0BDE8F08156
:101C20003068400501D5E06880B17068216920F016
:101C3000FE4040EA0160706040F21400C2F2000011
:101C40000068FFF73DFB00283FF434AF012002B0ED
:101C5000BDE8F081A068012808D0052840F0A480E4
:101C6000D6F8900040F00400C6F89000D6F8900036
:101C700040F00100C6F89000A4E000BFA169D6F8CA
:101C80009800002900F07A8040F00100C6F8980022
:101C9000FFF7F2FA054600BFD6F8980080073FF537
:101CA00014AFFFF7E9FA401B02284FF00300F3D905
:101CB00002B0BDE8F08100BF20F00100C6F894003A
:101CC000FFF7DAFA054600BFD6F8940080077FF5E3
:101CD000F4AEFFF7D1FA401B0228F5D9032002B079
:101CE000BDE8F0813168002821F48031316031682D
:101CF00021F48021316000F0CF80FFF7BDFA054666
:101D0000306880033FF5D3AEFFF7B6FA401B642876
:101D1000F6D9032002B0BDE8F08100BF20F4807046
:101D20003060FFF7A9FA0546306840057FF5C2AE7E
:101D3000FFF7A2FA401B02284FF00300F4D9B7E7DF
:101D40003168022821F08071316040F08B80FFF70C
:101D500093FA05463068800140F1CA80FFF78CFA9B
:101D6000401B02284FF00300F4D9A1E770682169F5
:101D700020F0FE4040EA016070609BE620F0010028
:101D8000C6F89800FFF778FA054600BFD6F8980025
:101D900080077FF59AAEFFF76FFA401B02284FF0DD
:101DA0000300F3D984E700BFD6F89010002821F093
:101DB0000101C6F89010D6F8901021F00401C6F881
:101DC000901079D0FFF758FA054641F2883700BFE6
:101DD000D6F89000800700F18180FFF74DFA401B94
:101DE000B842F5D9032002B0BDE8F081F068216A5D
:101DF00000F003028A427FF429AF626A6FF00F039A
:101E000000F0F00103EB021291427FF41FAFA16AD0
:101E100000F4FE42B2EB012F7FF418AFE16A00F04C
:101E20007842B2EBC16F7FF411AF226B0023CFF683
:101E3000E07303EA025200F4C001A2F500129142DD
:101E40007FF404AF616B4FF07E4202EA016100F063
:101E5000C06001F17E4188427FF4F8AE002002B0FC
:101E6000BDE8F081F0684FF6FF7120F00300F060EC
:101E7000F068CFF6EE610840F060FFF7FDF9044628
:101E800030688001EAD5FFF7F7F9001B02284FF010
:101E90000300F5D90CE700BFFFF7EEF9054600BFD8
:101EA000306880037FF503AEFFF7E6F9401B642836
:101EB0004FF00300F4D9FBE6FFF7DEF9054641F2E7
:101EC000883700BFD6F89000800707D5FFF7D4F910
:101ED000401BB8424FF00300F4D9E9E6B8F1000F17
:101EE0003FF5EFADB06D20F08050B065E9E500BF83
:101EF000F06848F20C01C0F29F1104F1200700EADB
:101F0000010C8ECF6FF00F00D4E90C5400EB0210DF
:101F10000022CFF6E07241EA0C0102EA05520843C2
:101F2000A2F500124FF07E4540EA032005EA046561
:101F3000104305F17E4540EAC7602843F0603068F1
:101F400040F080703060F06840F08070F060FFF723
:101F500093F90446306880013FF580AFFFF78CF9B4
:101F6000001B02284FF00300F4D9A1E6411E002017
:101F7000B0EB116F1CBF012070474EF21002CEF281
:101F8000000251604EF62351CEF20001F0230B7097
:101F90000721906011607047704700007047000093
:101FA0007047000070470000704700007047000055
:101FB00090F83C20012A4FF002024AD070B580F818
:101FC0003D20026843F2004C54689368C4F2010C4F
:101FD00042F6004E6245C4F2010E01D0724503D1B3
:101FE0004D6824F470042C434FF68F75CFF6FF55DF
:101FF0000E682C4042F6FF35C4F201053443AA4274
:1020000054600FDCB2F1804F16D040F20046C4F2AB
:102010000006B24210D040F60006C4F20006B242FA
:102020000AD00EE0724507D044F20006C4F2010661
:10203000B24201D0624504D1896823F0800319437C
:1020400091600121002280F83D1080F83C20BDE81D
:10205000704010467047000070470000002804BF21
:102060000120704710B5044690F83D0028B90020C3
:1020700084F83C00204600F023F8022084F83D005C
:102080002068211D03F0A0FE012084F8480084F898
:102090003E0084F83F0084F8400084F8410084F852
:1020A000420084F8430084F8440084F8450084F832
:1020B000460084F8470084F83D00002010BD000071
:1020C000006844F60001C4F20101884218BF70475D
:1020D00080B582B041F26000C4F2020001680022C3
:1020E00041F4802101600068002100F4802001900B
:1020F00001981A20FFF736F91A2002B0BDE8804097
:10210000FFF71EB990F83D1001291DD1022180F87A
:102110003D10016842F6FF32C868C4F201029142E4
:1021200040F00100C86011DCB1F1804F20D040F2D6
:102130000040C4F2000081421AD040F60000C4F210
:102140000000814214D020E00120704742F6004098
:10215000C4F2010081420BD044F20000C4F201003D
:10216000814205D043F20040C4F2010081420CD10B
:1021700088680722C0F201020240062A4FF00000E0
:10218000E3D0B2F5803F08BF7047086840F0010017
:10219000086000207047000010B5006840F200445D
:1021A000C4F20004A04201D010BD00BF40F2E01014
:1021B000C2F20000042100F091FE00EB80014BF21E
:1021C00000420901C0F2C442B2FBF1F240F25001F8
:1021D000C2F20001C1E903200020606240F2000069
:1021E00091ED030AC2F200009FED221A4278B8EE88
:1021F000400A837820EE010A01EE102A6422B8EE2C
:10220000411A5A4320EE010A01EE102AB8EEC11A13
:1022100080EE010A0278482A80ED040A14D04C2A84
:10222000C2D190ED031AB4EE410AF1EE10FA1DDDB1
:102230004A890123C92A8B7138BF10BD00224A8107
:1022400080ED030A10BD00BF90ED021AB4EE410A02
:10225000F1EE10FA0ADD4A890123C92A8B7122BFE7
:1022600000224A8180ED020A10BD00BF0020488193
:10227000887110BDC3F5C84090F83C30012B04BFF5
:1022800002207047F0B5082A28D0042A46D0002A38
:1022900062D10368D1E900C5D1F80CE01A6A42F6B0
:1022A000FF3722F001021A621A4652F8186F1C6AB0
:1022B000C4F20107BB4275DCB3F1804F00F08480AB
:1022C00040F20047C4F20007BB4200F07D8040F6B8
:1022D0000007C4F20007BB4276D091E00768D1E95D
:1022E00000C5D1E902313A6A61F3071522F4807220
:1022F0003A623A4652F81C4F3E6A24F0F30445EA2B
:10230000040126F420660CF00A0546EA0526116051
:102310003E62116821F00C01116066E00368D1E9AA
:1023200000E6D1E902C11A6A360222F010021A62EE
:102330001A4652F8184F4FF2FF071D6ABE4324F4A5
:10234000734461F30F3646EA040125F0A0040EF051
:102350000A0744EA07171CE00368D1E900E6D1E95F
:1023600002C11A6A360222F480521A621A4652F8E0
:102370001C4F4FF2FF071D6ABE4324F4734461F300
:102380000F3646EA040125F420440EF00A0744EA19
:10239000073711601F6211684FEA0C2321F4406176
:1023A000116022E042F60047C4F20107BB420BD0A5
:1023B00044F20007C4F20107BB4205D043F20047D4
:1023C000C4F20107BB421BD126F00306354324F0BB
:1023D0000A070CF00A066EF3071537449D611F6269
:1023E0009F6927F00C079F618B6811681943116082
:1023F000002180F83C10BDE8F0400846704700BF5F
:1024000046F00105E3E70000002804BF0120704703
:1024100010B5044690F83D0028B9002084F83C002F
:10242000204600F023F8022084F83D002068211D9A
:1024300003F0CAFC012084F8480084F83E0084F8C8
:102440003F0084F8400084F8410084F8420084F89A
:10245000430084F8440084F8450084F8460084F87A
:10246000470084F83D00002010BD0000006840F2E5
:102470000041C4F20001884218BF704780B586B0A1
:1024800041F24C00C4F20200C16841F00201C16097
:10249000C16801F0020101910199016841F0010157
:1024A00001600068002100F0010001900198802087
:1024B000019002200290CDE90311059001A94FF08F
:1024C0009040FEF7EDFD1D2000210022FEF74AFF9F
:1024D0001D20FEF735FF06B0BDE8804070470000C4
:1024E00080B599B10A1F8B0743EA920EBEF1030F24
:1024F0003CD8DFE80EF003171F2700BF00F13F02B2
:1025000092F800C0082937D122E000BF90F83E20A1
:1025100090F84430012A4FF0010208BF012B1BD074
:10252000104680BD00F1400292F800C0082923D176
:102530000EE000BF00F1410292F800C008291BD153
:1025400006E000BF00F1420292F800C0082913D152
:1025500000F1460216E000BF022280F83E2080F81B
:1025600044204FEAB102032A3ED9B0E000F1430211
:1025700092F800C00829EBD0042914BF00F14702EB
:1025800000F145021378BCF1010F4FF0010208BFC2
:10259000012BC5D1BEF1030F0AD8DFE80EF0030FFF
:1025A000158B00BF022280F83F20082912D187E056
:1025B000022280F8432008290CD181E0022280F811
:1025C0004020082906D17BE0022280F8412008291A
:1025D00000F07680042914BF80F8472080F8452059
:1025E0004FEAB102032A72D8DFE802F002080E14A3
:1025F0000068C26842F0020210E000BF0068C268D2
:1026000042F004020AE000BF0068C26842F008021B
:1026100004E000BF0068C26842F01002C26001F02E
:102620001F010122036A02FA01F123EA0102026298
:10263000026A114342F6FF32C4F201029042016283
:1026400010DCB0F1804F1FD040F20041C4F2000115
:10265000884219D040F60001C4F20001884213D02C
:1026600020E000BF42F60041C4F2010188420BD0D5
:1026700044F20001C4F20101884205D043F2004156
:10268000C4F2010188420DD181680722C0F2010223
:10269000114006294FF000023FF442AFB1F5803FF0
:1026A0003FF43EAF0168002241F001010160104695
:1026B00080BD00BF022280F8422008297FF48AAF43
:1026C00080F846204FEAB102032A7FF68DAF0068FA
:1026D000A5E7000010B5016804460869800744BFFB
:1026E000C8685FEA807061D40869400744BFC86861
:1026F0005FEA407066D40869000744BFC8685FEAB3
:1027000000706DD40869C00644BFC8685FEAC06045
:1027100072D40869C0071CBFC8685FEAC07079D16D
:102720000869000644BFC8685FEA00607AD4086997
:10273000C00544BFC8685FEA006000F17B8008699B
:10274000400644BFC8685FEA406000F17B800869CA
:10275000800644BFC8685FEA806000F17B8008693A
:10276000C00244BFC8685FEAC02000F17B800869EE
:10277000800244BFC8685FEA802000F17B8008695E
:10278000400244BFC8685FEA402000F17B800869CE
:10279000000246BFC8685FEA002010BD6FF4000267
:1027A00020460A61BDE81040FFF756BC6FF00200FA
:1027B000086101202077886980076BD02046FFF7E9
:1027C000EBFC6DE06FF0040008610220207788695F
:1027D00010F4407F68D02046FFF7DEFC6AE000BFBF
:1027E0006FF00800086104202077C869800765D071
:1027F0002046FFF7D1FC67E06FF010000861082069
:102800002077C86910F4407F62D02046FFF7C4FCEF
:1028100064E000BF6FF001000861204600F05CFB3F
:1028200021687DE76FF0800008612046FFF7B6FB66
:1028300021687CE76FF4807008612046FFF7ACFBED
:1028400021687CE76FF040000861204600F060FBE3
:1028500021687CE76FF0200008612046FFF7A0FBAD
:1028600021687CE76FF4801008612046FFF79CFB2D
:1028700021687CE76FF4001008612046FFF792FBA7
:1028800021687CE76FF4800008612046FFF78EFB2B
:1028900021687CE7204600F025F8204600F052FA37
:1028A0002168002020771FE7204600F01BF8204613
:1028B00000F048FA2168002020771CE7204600F04D
:1028C00011F8204600F03EFA21680020207719E731
:1028D000204600F007F8204600F034FA2168002076
:1028E000207716E77047000090F83C30012B04BFBA
:1028F000022070474FEAB202052A00F2D6812DE984
:10290000F041DFE812F007005500A900FD00510179
:102910008F0100BF03681A6AA3F1804622F001020A
:102920001A621D6A1A46A6F596369F05D3F804C0AA
:1029300052F818EF47EA96268F68D1F8008025F004
:102940000205072E45EA07050AD80127B74017F008
:10295000E50F1FBFCF6825F00C0527F004073D43A6
:10296000072E0CD8012707FA06F616F0E50F1FBF51
:10297000D1E905672CF44074264346EA070C4FF66C
:102980008C74CFF6FE740EEA040747EA0807C3F812
:1029900004C09F614F6809695F631D629F6947F0CA
:1029A00008079F619F6927F004079F6178E100BFD6
:1029B000036843F200461A6AC4F2010622F01002CC
:1029C0001A621D6A1A46D3F804C052F8188FB3422F
:1029D0008E68D1F800E025F0200545EA061505D0FF
:1029E00042F60046C4F20106B34207D1CE686FF04A
:1029F000400725F0C00507EA06163543A3F18046D7
:102A0000A6F596369F0547EA9626072E0CD801278D
:102A100007FA06F616F0E50F1FBFD1E905672CF49B
:102A20004064374344EA870C48F6FF44CFF6FF641E
:102A300004EA080444EA0E27C3F804C09F614F6803
:102A400009699F631D629F6947F400679F619F69E1
:102A500027F480679F6122E1036843F200461A6A07
:102A6000C4F2010622F480721A621D6A1A46D3F873
:102A700004C052F81C8FB3428E68D1F800E025F4F0
:102A8000007545EA062505D042F60046C4F2010667
:102A9000B34207D1CE6840F2FF47360225F44065C5
:102AA000BE433543A3F18046A6F596369F0547EA17
:102AB0009626072E0CD8012707FA06F616F0E50F22
:102AC0001FBFD1E905672CF44054374344EA071C83
:102AD0004FF68C74CFF6FE7404EA080444EA0E073D
:102AE000C3F804C0DF614F680969DF631D62DF69F5
:102AF00047F00807DF61DF6927F00407DF61CFE0F7
:102B0000036843F200461A6AC4F2010622F48052B6
:102B10001A621D6A1A46D3F804C052F81C8FB342D9
:102B20008E68D1F800E025F4005545EA063505D059
:102B300042F60046C4F20106B34207D1CE6844F61D
:102B4000FF77360325F44045BE433543A3F1804665
:102B5000A6F596369F0547EA9626072E0CD801273C
:102B600007FA06F616F0E50F1FBFD1E905672CF44A
:102B70004044374344EA871C48F6FF44CFF6FF64DD
:102B800004EA080444EA0E27C3F804C0DF614F6872
:102B900009691F641D62DF6947F40067DF61DF694F
:102BA00027F48067DF617AE003681A6AA3F180473F
:102BB00022F480321A621A46A7F596379C05D3F89C
:102BC00020805D6852F850EFD1F800C08E6844EA6A
:102BD0009727072F09D80124BC4014F0E50F1EBF2A
:102BE0004C6925F4803545EA042528F4003444EA8C
:102BF00006444FF68C76CFF6FE7603360EEA0607CD
:102C000047EA0C075D601F654F6809699F641C6295
:102C10001F6D47F008071F651F6D27F004071F652C
:102C20003EE000BF03681A6AA3F1804722F48012D5
:102C30001A621A46A7F596379C05D3F820805D687E
:102C400052F850EFD1F800C08E6844EA9727072F5A
:102C500009D80124BC4014F0E50F1EBF4C6925F4CF
:102C6000802545EA842528F4001444EA065448F6F1
:102C7000FF46CFF6FF6606F540760EEA060747EAFE
:102C80000C275D601F654F680969DF641C621F6D5A
:102C900047F400671F651F6D27F480671F650902F1
:102CA000136819431160BDE8F041002180F83C1021
:102CB00008467047002804BF0120704710B504463D
:102CC00090F83D0028B9002084F83C00204600F030
:102CD00023F8022084F83D002068211D03F074F8D9
:102CE000012084F8480084F83E0084F83F0084F80E
:102CF000400084F8410084F8420084F8430084F8DE
:102D0000440084F8450084F8460084F8470084F8BD
:102D10003D00002010BD00000068B0F1804F18BFDA
:102D2000704781B041F25800C4F20200016841F0DE
:102D300001010160006800F001000090009801B0FE
:102D4000704700007047000071B10A1F8B0743EA0B
:102D50009202032A12D8DFE802F00315191D00BF02
:102D600000F13F0318E000BF90F83E20012A1CBF8D
:102D700001207047022280F83E202CE000F143033E
:102D80000AE000BF00F1400306E000BF00F141038C
:102D900002E000BF00F142031B78012B1CBF0120A1
:102DA0007047032A08D8DFE802F0030B0F1300BFB7
:102DB000022280F83F200EE0022280F843200AE041
:102DC000022280F8402006E0022280F8412002E042
:102DD000022280F84220026801F01F014FF0010C2E
:102DE000136A0CFA01F18B431362136A90050B43CB
:102DF000A2F18041A1F5963140EA912106291362A2
:102E000044D80CFA01F010F0650F3FD0506C42F638
:102E1000FF31C4F2010140F400408A4250640FDCEB
:102E2000B2F1804F1ED040F20040C4F20000824256
:102E300018D040F60000C4F20000824212D01EE01A
:102E400042F60040C4F2010082420BD044F200007E
:102E5000C4F20100824205D043F20040C4F20100F6
:102E600082420CD190680721C0F20101014006297D
:102E70004FF0000008D0B1F5803F08BF70471068E0
:102E800040F0010010600020704700BF42F6FF30A4
:102E9000C4F201008242C3DD43F6FF70C4F20100B8
:102EA000824207DC42F60040C4F201008242D3D1E4
:102EB000D8E700BF44F20000C4F201008242D1D042
:102EC00044F60000C4F20100824202BF506C40F49C
:102ED00000405064D3E70000704700004FEAB101A2
:102EE000032984BF00207047DFE801F0020E060AC4
:102EF000006834300068704700683C3000687047F4
:102F000000684030006870470068383000687047DB
:102F100070470000FEE7000040F21841C4F60001CF
:102F20000A6942F400720A610A6942F480720A6115
:102F30000A6842F020020A602022C1F8FC230A69D4
:102F400042F020020A6100BF00BF00BF0A6842F0E1
:102F500020020A600A6842F480720A600022C1F806
:102F6000FC230B6943F020030B6100BF00BF00BFCF
:102F70000B6843F020030B600B6843F480730B6015
:102F80000B6943F400730B610B6943F480730B61AD
:102F90000B6843F020030B602123C1F8FC330B695D
:102FA00043F020030B6100BF00BF00BF0B6843F07C
:102FB00020030B600B6843F480730B60C1F8FC23A3
:102FC0000A6942F020020A6100BF00BF00BF0A6820
:102FD00042F020020A600A6842F480720A600A69BC
:102FE00042F400720A610A6942F480720A610A6856
:102FF00042F020020A602222C1F8FC230A6942F052
:1030000020020A6100BF00BF00BF0A6842F0200230
:103010000A600A6842F480720A6000BF00BF00BF05
:103020000A6842F400720A604FF496320B69053A5E
:1030300043F400730B610B6843F480730B600B68FF
:1030400043F020030B60C1F8FC030B6943F020033D
:103050000B6100BF00BF00BF0B6843F020030B6093
:103060000B6843F480730B6000BF00BF00BF0B68A8
:1030700043F400730B600B6943F400730B610B683E
:1030800043F480730B600B6843F020030B60C1F8BE
:10309000FC030B6943F020030B6100BF00BF00BFBE
:1030A0000B6843F020030B600B6843F480730B60E4
:1030B00000BF00BF00BF0B6843F400730B600B69D7
:1030C00043F400730B610B6843F480730B600B686F
:1030D00043F020030B60C1F8FC030B6943F02003AD
:1030E0000B6100BF00BF00BF0B6843F020030B6003
:1030F0000B6843F480730B6000BF00BF00BF0B6818
:1031000043F400730B600B6943F400730B610B68AD
:1031100043F480730B600B6843F020030B60C1F82D
:10312000FC030B6943F020030B6100BF00BF00BF2D
:103130000B6843F020030B600B6843F480730B6053
:1031400000BF00BF00BF0B6843F400730B600B6946
:1031500043F400730B610B6843F480730B600B68DE
:1031600043F020030B60C1F8FC030B6943F020031C
:103170000B6100BF00BF00BF0B6843F020030B6072
:103180000B6843F480730B6000BF00BF00BF0B6887
:1031900043F400730B607FF449AF70470A78002A4C
:1031A00008BF70472DE9F04146F63C7804464D1CB7
:1031B000002740F23F16C0F6000800BFA2F1200031
:1031C000C1B2490051FA80F008EB0012B1B22046BA
:1031D00000F00AF8EA5D22B1103E132F07F1010753
:1031E000ECD3BDE8F04170472DE9F04740F21843B9
:1031F000C4F600031F694FF0200C47F400771F61ED
:103200001F694FF0210E47F480771F611F6840F25D
:103210001C0947F020071F60C3F8FCC31F6940F278
:103220006A0A47F020071F6100BF00BF00BF1F6888
:103230004FF0220847F020071F601F68C2F2000904
:1032400047F480771F60C3F8FC031F69C2F2000ACD
:1032500047F020071F6100BF00BF00BF1F6847F095
:1032600020071F601F6847F480771F601F6947F4BD
:1032700000771F611F6947F480771F611F6847F05F
:1032800020071F60C3F8FCE31C6944F020041C61A4
:1032900000BF00BF00BF1C6844F020041C601C6815
:1032A00044F480741C60C3F8FC131C6944F02004CF
:1032B0001C6100BF00BF00BF1C6844F020041C60FC
:1032C0001C6844F480741C60002400BF1D6945F430
:1032D00000751D611D6945F480751D611D6845F00F
:1032E00020051D60C3F8FC831D6945F020051D61A4
:1032F00000BF00BF00BF1D6845F020051D601D68B0
:1033000045F480751D6000BF00BF00BF1D6845F417
:1033100000751D60002500BF32F81460EE40F6070E
:10332000564608BF4E4636881F6947F400771F612E
:103330001F6847F480771F601F6847F020071F60F1
:10334000C3F8FC631E696F1C46F020061E6100BFB7
:1033500000BF00BF1E6846F020061E601E6846F4CF
:1033600080761E6000BF00BF00BF1E6846F4007676
:103370001E6032F81460FE40F607564608BF4E46FF
:1033800036881F6947F400771F611F6847F480770C
:103390001F601F6847F020071F60C3F8FC631E69A9
:1033A000AF1C46F020061E6100BF00BF00BF1E68B4
:1033B00046F020061E601E6846F480761E6000BF40
:1033C00000BF00BF1E6846F400761E6032F814602D
:1033D000FE40F607564608BF4E4636881F6947F43A
:1033E00000771F611F6847F480771F601F6847F0F0
:1033F00020071F60C3F8FC631E69EF1C46F020061F
:103400001E6100BF00BF00BF1E68043546F02006E5
:103410001E601E6846F480761E6000BF00BF00BFBD
:103420001E6846F400761E6032F81460FE40F6070F
:10343000564608BF4E4636881F69102D47F4007760
:103440001F611F6847F480771F601F6847F02007DF
:103450001F60C3F8FC631E6946F020061E6100BFB2
:1034600000BF00BF1E6846F020061E601E6846F4BE
:1034700080761E6000BF00BF00BF1E6846F4007665
:103480001E607FF449AF1D69013045F400751D6170
:103490001D69013445F480751D611D68182C45F0C7
:1034A00020051D60C3F8FCC31D6945F020051D61A2
:1034B00000BF00BF00BF1D6845F020051D601D68EE
:1034C00045F480751D60C5B2C3F8FC531D6945F015
:1034D00020051D6100BF00BF00BF1D6845F020052D
:1034E0001D601D6845F480751D601D6945F40075FB
:1034F0001D611D6945F480751D611D6845F020053D
:103500001D60C3F8FCE31D6945F020051D6100BF87
:1035100000BF00BF1D6845F020051D601D6845F413
:1035200080751D60C3F8FC131D6945F020051D6101
:1035300000BF00BF00BF1D6845F020051D601D686D
:1035400045F480751D6008BFBDE8F087BEE6000049
:103550002DE9F04F8BB0002641F24C000596C4F2E5
:103560000200016840F2184541F004010160016861
:10357000C4F6000501F0040106910699016801AC4A
:1035800041F001010160016840F6140901F00101F8
:10359000069106990168C4F6000941F00201016034
:1035A0000068214600F00200069006984FF448702B
:1035B000019001200290A5F118000127CDE90366D2
:1035C000FDF76EFD4FF48070CDE901074FF090409C
:1035D0002146CDE90366FDF763FD4FF6FF7005F563
:1035E0007A7406904FF0030806A920460A964FF613
:1035F000FF7B0797CDE90868FDF752FD4FF6004ABB
:10360000CFF6FF7A55F80A0006A940F4807045F815
:103610000A0028684FF6FF7740F408702860286990
:1036200040F400702861286940F48070286128689F
:1036300040F020002860C9F80060286940F02000B0
:10364000286100BF00BF00BF286840F0200028604C
:10365000286840F48070286020460A96CDF818B09B
:10366000CDF82480CDE90766FDF71AFD4FF6104B23
:10367000CFF6FF7B55F80B0007A940F4807045F8A2
:103680000B0000BF00BF00BFD5F8F89355F80A0043
:1036900040F4807045F80A00012081E8410106A944
:1036A00020460A960697FDF7FBFC286848F2302171
:1036B00040F40070286040F26C00C2F20000A0F8F4
:1036C00000900088884203D100F07EFA02E000BF3B
:1036D00000F0EEFF2869002640F400702861286998
:1036E0004FF6FF7840F48070286128684FF0030996
:1036F00040F02000286040F61400C4F60000066088
:10370000286906A940F02000286100BF00BF00BF63
:10371000286840F020002860286840F48070286005
:1037200020460A96CDE90686CDE90869FDF7B8FC82
:1037300055F80B0007A940F4807045F80B0000BF56
:1037400000BF00BFD5F8F87355F80A0040F4807048
:1037500045F80A00012081E8410206A920460A96A0
:10376000CDF81880FDF79CFC286840F400702860B4
:1037700040F26C00C2F2000007800BB0BDE8F08F91
:1037800081B0ADF80200BDF8020040F21C01C2F2A7
:103790000001088001B0704781B0ADF80200BDF8AB
:1037A000020040F26A01C2F20001088001B07047D5
:1037B00070B540F600060446B1FA81F0C4F6000682
:1037C000450930464FF6FF710122FDF74FFD2102FA
:1037D00030462A46FDF74AFD06F58064204604215E
:1037E0000122FDF743FD204604210022BDE8704080
:1037F000FDF73CBD10B58CB040F27000C2F2000085
:103800004FF0A04100244FF40032042380E816005A
:103810000121CDE90A44CDE90744CDE90544CDE9CC
:103820000344CDE90144C0E90344C0E9054384836E
:10383000016280F82440C0E90B4480F83840C4633A
:1038400080F84040FDF7E6F9002818BFFCF7AEFF0E
:1038500040F27000C2F2000009A90994FCF7ACFF25
:10386000002818BFFCF7A2FF40F60000C2F6306047
:10387000019006207F2102900020049104210390F2
:10388000CDE9051040F27000C2F2000001A9FCF77A
:10389000EFFF002818BFFCF789FF0CB010BD000037
:1038A000B0B588B040F2DC0040F20011C2F2000076
:1038B000C5F2000100244FF40032042580E8160010
:1038C0000121CDE90644C0E90344C0E905458483EC
:1038D000016280F82440C0E90B4480F83840C4639A
:1038E00080F84040FDF796F9002818BFFCF75EFF0E
:1038F00048F20000C3F6F06000900620CDE9010414
:103900007F20CDE9030540F2DC00C2F200006946E9
:103910000594FCF7ADFF002818BFFCF747FF08B07F
:10392000B0BD00002DE9F04F87B0002441F24C00FB
:103930000694C4F20200016840F2004841F004011C
:1039400001600168C4F6000801F0040101910199C9
:10395000016808F5806741F02001016001680022DC
:1039600001F020010191019901684FF6FF7541F0C6
:1039700001010160016801F00101019101990168F3
:1039800041F002010160016801F002010191019919
:10399000016841F00801016000684FF6FF7100F016
:1039A0000800019001983846FDF760FC4FF0904008
:1039B0004FF4807100224FF48079FDF757FC08F531
:1039C000006B5846042100224FF0040AFDF74EFC1C
:1039D00040464FF448710022FDF748FC02AE0295C4
:1039E000012538463146CDE903540594FDF758FBCF
:1039F0004FF090403146CDE902540494FDF750FB5E
:103A00000720CDE90204404631460494FDF748FB07
:103A10004FF090403146CDE90295CDE90444FDF7E1
:103A20003FFB58463146CDE902A5CDE90444FDF7F8
:103A300037FB4FF44870CDE9020540463146CDE9E9
:103A40000444FDF72DFB07B0BDE8F08F80B540F2D0
:103A5000481044F60001C2F20000C4F20101002344
:103A60004F2242F2107C80E80E10C0E904338361DB
:103A7000FEF7F4FA002808BF80BDBDE88040FCF7DF
:103A800095BE000010B590B040F294100024C2F230
:103A900000004FF0804140F6C3130994CDE906447D
:103AA000CDE90444072280E81600C0E903348461AC
:103AB000FFF700F9002818BFFCF778FE40F29410D9
:103AC000C2F2000008A908940A94FEF771FA0028CF
:103AD00018BFFCF76BFE602001904FF47A7040F243
:103AE000941402900020C2F200040390059001A9F2
:103AF00020460422FEF7F8FE002818BFFCF756FE09
:103B00002068B0F1804F01D010B010BD41F24C00E0
:103B1000C4F20200016841F00101016000680BA9D4
:103B200000F001000B900B980220CDE90B00002063
:103B3000CDE90D0001200F904FF09040FDF7B0FA55
:103B400010B010BD10B588B040F2E01040F2004156
:103B50000024C2F20000C4F200014FF6FF73069485
:103B60004F2280E81600C0E903348461FEF74CFC64
:103B7000002818BFFCF71AFE40F2E010C2F2000065
:103B800005A905940794FEF713FA002818BFFCF75F
:103B90000DFE002001210190CDE90210049040F2B9
:103BA000E010C2F2000001A90422FEF765FB002824
:103BB00018BFFCF7FBFD08B010BD0000FEE70000D9
:103BC000FEE700007047000040F21840C4F6000015
:103BD0000169002241F40071016101694FF0030C99
:103BE00041F480710161016841F020010160C0F879
:103BF000FC23016941F02001016100BF00BF00BF4B
:103C0000016841F020010160016841F480710160A8
:103C10000121C0F8FC13036943F02003036100BFD6
:103C200000BF00BF036843F020030360036843F450
:103C300080730360036943F400730361036943F411
:103C400080730361036843F020030360C0F8FC1332
:103C5000036943F02003036100BF00BF00BF036896
:103C600043F020030360036843F480730360C0F8EB
:103C7000FC23026942F02002026100BF00BF00BFC6
:103C8000026842F020020260026842F48072026020
:103C9000026942F400720261026942F480720261B8
:103CA000026842F0200202601022C0F8FC23026980
:103CB00042F02002026100BF00BF00BF026842F074
:103CC00020020260026842F48072026041F2907247
:103CD000C0F8FC23026942F02002026100BF00BF6D
:103CE00000BF026842F020020260026842F4807263
:103CF0000260026942F400720261026942F4807259
:103D00000261026842F0200202606022C0F8FC23D7
:103D1000026942F02002026100BF00BF00BF0268DA
:103D200042F020020260026842F4807202604FF4A6
:103D30001C52C0F8FC23026942F02002026100BF5D
:103D400000BF00BF026842F020020260026842F435
:103D500080720260026942F400720261026942F4F8
:103D600080720261026842F0200202606122C0F8A3
:103D7000FC23026942F02002026100BF00BF00BFC5
:103D8000026842F020020260026842F4807202601F
:103D9000C0F8FC13016941F02001016100BF00BFC0
:103DA00000BF016841F020010160016841F48071A9
:103DB0000160016941F400710161016941F48071A0
:103DC0000161016841F0200101604621C0F8FC1347
:103DD000016941F02001016100BF00BF00BF01681F
:103DE00041F020010160016841F48071016002210D
:103DF000C0F8FC13026942F02002026100BF00BF5C
:103E000000BF026842F020020260026842F4807241
:103E10000260026942F400720261026942F4807237
:103E20000261026842F0200202601322C0F8FC2303
:103E3000026942F02002026100BF00BF00BF0268B9
:103E400042F020020260026842F48072026048F28E
:103E50001002C0F8FC23026942F02002026100BF98
:103E600000BF00BF026842F020020260026842F414
:103E700080720260026942F400720261026942F4D7
:103E800080720261026842F0200202601222C0F8D1
:103E9000FC23026942F02002026100BF00BF00BFA4
:103EA000026842F020020260026842F480720260FE
:103EB00048F2FE02C0F8FC23026942F020020261CF
:103EC00000BF00BF00BF026842F02002026002682B
:103ED00042F480720260026942F400720261026977
:103EE00042F480720261026842F020020260C0F86F
:103EF000FC13016941F02001016100BF00BF00BF58
:103F0000016841F020010160016841F480710160A5
:103F10004FF4A061C0F8FC13016941F02001016178
:103F200000BF00BF00BF016841F0200101600168CF
:103F300041F480710160016941F40071016101691E
:103F400041F480710161016841F020010160C0F815
:103F5000FCC3026942F02002026100BF00BF00BF43
:103F6000026842F020020260026842F4807202603D
:103F700041F23002C0F8FC23026942F020020261E3
:103F800000BF00BF00BF026842F02002026002686A
:103F900042F480720260026942F4007202610269B6
:103FA00042F480720261026842F020020260302214
:103FB000C0F8FC23026942F02002026100BF00BF8A
:103FC00000BF026842F020020260026842F4807280
:103FD000026040F20332C0F8FC23036943F020037F
:103FE000036100BF00BF00BF036843F0200303600C
:103FF000036843F480730360036943F4007303614F
:10400000036943F480730361036843F02003036092
:104010003123C0F8FC33036943F02003036100BF80
:1040200000BF00BF036843F020030360036843F44C
:1040300080730360C0F8FC23036943F0200303612D
:1040400000BF00BF00BF036843F0200303600368A4
:1040500043F480730360036943F4007303610369ED
:1040600043F480730361036843F020030360322349
:10407000C0F8FC33036943F02003036100BF00BFB5
:1040800000BF036843F020030360036843F48073B8
:104090000360C0F8FC23036943F02003036100BF01
:1040A00000BF00BF036843F020030360036843F4CC
:1040B00080730360036943F400730361036943F48D
:1040C00080730361036843F0200303603323C0F867
:1040D000FC33036943F02003036100BF00BF00BF4E
:1040E000036843F020030360036843F480730360B4
:1040F0004FF44073C0F8FC33016941F020010161C5
:1041000000BF00BF00BF016841F0200101600168ED
:1041100041F480710160016941F40071016101693C
:1041200041F480710161016841F020010160342196
:10413000C0F8FC13016941F02001016100BF00BF1C
:1041400000BF016841F020010160016841F4807105
:104150000160C0F8FCC3016941F02001016100BFAA
:1041600000BF00BF016841F020010160016841F417
:1041700080710160016941F400710161016941F4DC
:1041800080710161016841F0200101603521C0F8B2
:10419000FC13016941F02001016100BF00BF00BFB5
:1041A000016841F020010160016841F48071016003
:1041B000C0F8FC23016941F02001016100BF00BF8C
:1041C00000BF016841F020010160016841F4807185
:1041D0000160016941F400710161016941F480717C
:1041E0000161016841F0200101603621C0F8FC1333
:1041F000016941F02001016100BF00BF00BF0168FB
:1042000041F020010160016841F4807101601421D6
:10421000C0F8FC13016941F02001016100BF00BF3B
:1042200000BF016841F020010160016841F4807124
:104230000160016941F400710161016941F480711B
:104240000161016841F0200101603721C0F8FC13D1
:10425000016941F02001016100BF00BF00BF01689A
:1042600041F020010160016841F480710160C0F8F3
:10427000FC23016941F02001016100BF00BF00BFC4
:10428000016841F020010160016841F48071016022
:10429000016941F400710161016941F480710161BA
:1042A000016841F0200101603821C0F8FC13016968
:1042B00041F02001016100BF00BF00BF016841F073
:1042C00020010160016841F480710160C0F8FC23A5
:1042D000016941F02001016100BF00BF00BF01681A
:1042E00041F020010160016841F4807101600169C1
:1042F00041F400710161016941F48071016101685B
:1043000041F0200101603921C0F8FC13016941F03E
:104310002001016100BF00BF00BF016841F0200122
:104320000160016841F480710160C0F8FC230169FB
:1043300041F02001016100BF00BF00BF016841F0F2
:1043400020010160016841F480710160016941F45C
:1043500000710161016941F480710161016841F0FE
:10436000200101603A21C0F8FC13016941F02001ED
:10437000016100BF00BF00BF016841F02001016082
:10438000016841F480710160C0F8FC33016941F0BB
:104390002001016100BF00BF00BF016841F02001A2
:1043A0000160016841F480710160016941F40071AC
:1043B0000161016941F480710161016841F02001EE
:1043C00001603B21C0F8FC13016941F0200101614B
:1043D00000BF00BF00BF016841F02001016001681B
:1043E00041F480710160C0F8FCC3016941F0200113
:1043F000016100BF00BF00BF016841F02001016002
:10440000016841F480710160016941F4007101614A
:10441000016941F480710161016841F0200101608E
:104420003C21C0F8FC13016941F02001016100BF8B
:1044300000BF00BF016841F020010160016841F444
:1044400080710160C0F8FC23016941F02001016125
:1044500000BF00BF00BF016841F02001016001689A
:1044600041F480710160016941F4007101610169E9
:1044700041F480710161016841F0200101603D213A
:10448000C0F8FC13016941F02001016100BF00BFC9
:1044900000BF016841F020010160016841F48071B2
:1044A00001604FF4A051C0F8FC13016941F02001F4
:1044B000016100BF00BF00BF016841F02001016041
:1044C000016841F480710160016941F4007101618A
:1044D000016941F480710161016841F020010160CE
:1044E0009221C0F8FC13016941F02001016100BF75
:1044F00000BF00BF016841F020010160016841F484
:10450000807101604FF40071C0F8FC13016941F043
:104510002001016100BF00BF00BF016841F0200120
:104520000160016841F480710160016941F400712A
:104530000161016941F480710161016841F020016C
:1045400001609321C0F8FC13016941F02001016171
:1045500000BF00BF00BF016841F020010160016899
:1045600041F480710160C0F8FC23016941F0200131
:10457000016100BF00BF00BF016841F02001016080
:10458000016841F480710160016941F400710161C9
:10459000016941F480710161016841F0200101600D
:1045A0009021C0F8FC13016941F02001016100BFB6
:1045B00000BF00BF016841F020010160016841F4C3
:1045C0008071016040F60D01C0F8FC13016941F0F3
:1045D0002001016100BF00BF00BF016841F0200160
:1045E0000160016841F480710160016941F400716A
:1045F0000161016941F480710161016841F02001AC
:104600000160C0F8FCC3016941F02001016100BFF5
:1046100000BF00BF016841F020010160016841F462
:104620008071016041F21801C0F8FC13016941F08A
:104630002001016100BF00BF00BF016841F02001FF
:104640000160016841F480710160016941F4007109
:104650000161016941F480710161016841F020014B
:1046600001600721C0F8FC13016941F020010161DC
:1046700000BF00BF00BF016841F020010160016878
:1046800041F48071016040F27311C0F8FC130169BC
:1046900041F02001016100BF00BF00BF016841F08F
:1046A00020010160016841F48071016070470000E1
:1046B0002DE9F04F81B040F21844C4F6000420699F
:1046C0004FF0120940F4007020612069002540F489
:1046D000807020612068112640F020002060E320D7
:1046E000C4F8FC0320694FF0130B40F02000206158
:1046F00000BF00BF00BF2068102740F020002060EE
:1047000020684FF0070840F48070206043F20800F2
:10471000C4F8FC03206940F02000206100BF00BF06
:1047200000BF206840F020002060206840F48070C6
:104730002060206940F400702061206940F480709E
:104740002061206840F020002060E720C4F8FC03CE
:10475000206940F02000206100BF00BF00BF20683A
:1047600040F020002060206840F480702060C4F891
:10477000FC93206940F02000206100BF00BF00BF13
:10478000206840F020002060206840F480702060A5
:10479000206940F400702061206940F4807020613D
:1047A000206840F020002060EF20C4F8FC0320695E
:1047B00040F02000206100BF00BF00BF206840F033
:1047C00020002060206840F48070206041F2312099
:1047D000C4F8FC03206940F02000206100BF00BF46
:1047E00000BF206840F020002060206840F4807006
:1047F0002060206940F400702061206940F48070DE
:104800002061206840F0200020600120C4F8FC03F3
:10481000206940F02000206100BF00BF00BF206879
:1048200040F020002060206840F480702060C4F8D0
:10483000FC53206940F02000206100BF00BF00BF92
:10484000206840F020002060206840F480702060E4
:10485000206940F400702061206940F4807020617C
:10486000206840F0200020600220C4F8FC0320698A
:1048700040F02000206100BF00BF00BF206840F072
:1048800020002060206840F4807020604FF4E060D9
:10489000C4F8FC03206940F02000206100BF00BF85
:1048A00000BF206840F020002060206840F4807045
:1048B0002060206940F400702061206940F480701D
:1048C0002061206840F0200020600320C4F8FC0331
:1048D000206940F02000206100BF00BF00BF2068B9
:1048E00040F020002060206840F48070206041F299
:1048F0003000C4F8FC03206940F02000206100BFB4
:1049000000BF00BF206840F020002060206840F415
:1049100080702060206940F400702061206940F4BC
:1049200080702061206840F0200020600420C4F8DE
:10493000FC03206940F02000206100BF00BF00BFE1
:10494000206840F020002060206840F480702060E3
:10495000C4F8FC53206940F02000206100BF00BF74
:1049600000BF206840F020002060206840F4807084
:104970002060206940F400702061206940F480705C
:104980002061206840F0200020600820C4F8FC036B
:10499000206940F02000206100BF00BF00BF2068F8
:1049A00040F020002060206840F48070206040F2D9
:1049B0000720C4F8FC03206940F02000206100BFFC
:1049C00000BF00BF206840F020002060206840F455
:1049D00080702060206940F400702061206940F4FC
:1049E00080702061206840F0200020600920C4F819
:1049F000FC03206940F02000206100BF00BF00BF21
:104A0000206840F020002060206840F48070206022
:104A1000C4F8FC53206940F02000206100BF00BFB3
:104A200000BF206840F020002060206840F48070C3
:104A30002060206940F400702061206940F480709B
:104A40002061206840F0200020600A20C4F8FC03A8
:104A5000206940F02000206100BF00BF00BF206837
:104A600040F020002060206840F480702060C4F88E
:104A7000FC53206940F02000206100BF00BF00BF50
:104A8000206840F020002060206840F480702060A2
:104A9000206940F400702061206940F4807020613A
:104AA000206840F0200020600C20C4F8FC0320693E
:104AB00040F02000206100BF00BF00BF206840F030
:104AC00020002060206840F480702060C4F8FC530F
:104AD000206940F02000206100BF00BF00BF2068B7
:104AE00040F020002060206840F480702060206941
:104AF00040F400702061206940F4807020612068DB
:104B000040F0200020600D20C4F8FC03206940F034
:104B10002000206100BF00BF00BF206840F02000DF
:104B20002060206840F480702060C4F8FC53206945
:104B300040F02000206100BF00BF00BF206840F0AF
:104B400020002060206840F480702060206940F4DC
:104B500000702061206940F480702061206840F07E
:104B6000200020600F20C4F8FC03206940F02000E2
:104B7000206100BF00BF00BF206840F0200020601F
:104B8000206840F480702060C4F8FC53206940F035
:104B90002000206100BF00BF00BF206840F020005F
:104BA0002060206840F480702060206940F400702C
:104BB0002061206940F480702061206840F020006E
:104BC00020601020C4F8FC03206940F02000206120
:104BD00000BF00BF00BF206840F0200020602068B8
:104BE00040F480702060C4F8FC53206940F020003D
:104BF000206100BF00BF00BF206840F0200020609F
:104C0000206840F480702060206940F400702061CA
:104C1000206940F480702061206840F0200020600E
:104C2000C4F8FC63206940F02000206100BF00BF91
:104C300000BF206840F020002060206840F48070B1
:104C400020600720C4F8FC03206940F020002061A8
:104C500000BF00BF00BF206840F020002060206837
:104C600040F480702060206940F400702061206969
:104C700040F480702061206840F020002060C4F87B
:104C8000FC93206940F02000206100BF00BF00BFFE
:104C9000206840F020002060206840F48070206090
:104CA000C4F8FC53206940F02000206100BF00BF21
:104CB00000BF206840F020002060206840F4807031
:104CC0002060206940F400702061206940F4807009
:104CD0002061206840F020002060C4F8FCB3206907
:104CE00040F02000206100BF00BF00BF206840F0FE
:104CF00020002060206840F480702060C4F8FC53DD
:104D0000206940F02000206100BF00BF00BF206884
:104D100040F020002060206840F480702060C820AF
:104D2000FCF7AAF920694FF0320A40F400702061C4
:104D3000206940F480702061206840F020002060ED
:104D4000C4F8FC732069102740F02000206100BFE8
:104D500000BF00BF206840F020002060206840F4C1
:104D60008070206041F29060C4F8FC03206940F03C
:104D70002000206100BF00BF00BF206840F020007D
:104D80002060206840F480702060206940F400704A
:104D90002061206940F480702061206840F020008C
:104DA0002060C4F8FC63206940F02000206100BF4F
:104DB00000BF00BF206840F020002060206840F461
:104DC0008070206040F22720C4F8FC03206940F086
:104DD0002000206100BF00BF00BF206840F020001D
:104DE0002060206840F4807020603220FCF744F995
:104DF000206940F400702061206940F480702061D7
:104E0000206840F020002060C4F8FC93206940F046
:104E10002000206100BF00BF00BF206840F02000DC
:104E20002060206840F4807020601D20C4F8FC03DE
:104E3000206940F02000206100BF00BF00BF206853
:104E400040F020002060206840F480702060322014
:104E5000FCF712F9206940F400702061206940F4E9
:104E600080702061206840F020002060C4F8FCB30E
:104E7000206940F02000206100BF00BF00BF206813
:104E800040F020002060206840F4807020604FF4E3
:104E90000060C4F8FC03206940F02000206100BFDE
:104EA00000BF00BF206840F020002060206840F470
:104EB00080702060206940F400702061206940F417
:104EC00080702061206840F0200020602920C4F814
:104ED000FC03206940F02000206100BF00BF00BF3C
:104EE000206840F020002060206840F4807020603E
:104EF0001420C4F8FC03206940F02000206100BFAA
:104F000000BF00BF206840F020002060206840F40F
:104F100080702060206940F400702061206940F4B6
:104F200080702061206840F0200020602B20C4F8B1
:104F3000FC03206940F02000206100BF00BF00BFDB
:104F4000206840F020002060206840F480702060DD
:104F50000B20C4F8FC03206940F02000206100BF52
:104F600000BF00BF206840F020002060206840F4AF
:104F7000807020603220FCF77FF82069032140F424
:104F8000007020612069072240F480702061206851
:104F900040F0200020602020C4F8FC03206940F08D
:104FA0002000206100BF00BF00BF206840F020004B
:104FB0002060206840F480702060C4F8FC532069B1
:104FC00040F02000206100BF00BF00BF206840F01B
:104FD00020002060206840F480702060206940F448
:104FE00000702061206940F480702061206840F0EA
:104FF000200020602120C4F8FC03206940F020003C
:10500000206100BF00BF00BF206840F0200020608A
:10501000206840F480702060C4F8FC53206940F0A0
:105020002000206100BF00BF00BF206840F02000CA
:105030002060206840F480702060206940F4007097
:105040002061206940F480702061206840F02000D9
:1050500020603020C4F8FC03206940F0200020616B
:1050600000BF00BF00BF206840F020002060206823
:1050700040F480702060C4F8FC83206940F0200078
:10508000206100BF00BF00BF206840F0200020600A
:10509000206840F480702060206940F40070206136
:1050A000206940F480702061206840F0200020607A
:1050B0003120C4F8FC03206940F02000206100BFCB
:1050C00000BF00BF206840F020002060206840F44E
:1050D0008070206040F20770C4F8FC03206940F043
:1050E0002000206100BF00BF00BF206840F020000A
:1050F0002060206840F480702060206940F40070D7
:105100002061206940F480702061206840F0200018
:105110002060C4F8FCA3206940F02000206100BF9B
:1051200000BF00BF206840F020002060206840F4ED
:10513000807020600620C4F8FC03206940F0200045
:10514000206100BF00BF00BF206840F02000206049
:10515000206840F480702060206940F40070206175
:10516000206940F480702061206840F020002060B9
:105170003520C4F8FC03206940F02000206100BF06
:1051800000BF00BF206840F020002060206840F48D
:105190008070206040F20470C4F8FC03206940F085
:1051A0002000206100BF00BF00BF206840F0200049
:1051B0002060206840F480702060206940F4007016
:1051C0002061206940F480702061206840F0200058
:1051D00020603620C4F8FC03206940F020002061E4
:1051E00000BF00BF00BF206840F0200020602068A2
:1051F00040F48070206041F60470C4F8FC0320691C
:1052000040F02000206100BF00BF00BF206840F0D8
:1052100020002060206840F480702060206940F405
:1052200000702061206940F480702061206840F0A7
:10523000200020603720C4F8FC03206940F02000E3
:10524000206100BF00BF00BF206840F02000206048
:10525000206840F4807020600420C4F8FC032069BA
:1052600040F02000206100BF00BF00BF206840F078
:1052700020002060206840F480702060206940F4A5
:1052800000702061206940F480702061206840F047
:10529000200020603820C4F8FC03206940F0200082
:1052A000206100BF00BF00BF206840F020002060E8
:1052B000206840F480702060C4F8FC53206940F0FE
:1052C0002000206100BF00BF00BF206840F0200028
:1052D0002060206840F480702060206940F40070F5
:1052E0002061206940F480702061206840F0200037
:1052F00020603920C4F8FC03206940F020002061C0
:1053000000BF00BF00BF206840F020002060206880
:1053100040F48070206040F20670C4F8FC032069FD
:1053200040F02000206100BF00BF00BF206840F0B7
:1053300020002060206840F480702060206940F4E4
:1053400000702061206940F480702061206840F086
:10535000200020603C20C4F8FC03206940F02000BD
:10536000206100BF00BF00BF206840F02000206027
:10537000206840F48070206040F20170C4F8FC03A3
:10538000206940F02000206100BF00BF00BF2068FE
:1053900040F020002060206840F480702060206988
:1053A00040F400702061206940F480702061206822
:1053B00040F0200020603D20C4F8FC03206940F04C
:1053C0002000206100BF00BF00BF206840F0200027
:1053D0002060206840F4807020600F20C4F8FC0337
:1053E000206940F02000206100BF00BF00BF20689E
:1053F00040F020002060206840F480702060206928
:1054000040F400702061206940F4807020612068C1
:1054100040F0200020605020C4F8FC03206940F0D8
:105420002000206100BF00BF00BF206840F02000C6
:105430002060206840F480702060C4F8FC5320692C
:1054400040F02000206100BF00BF00BF206840F096
:1054500020002060206840F480702060206940F4C3
:1054600000702061206940F480702061206840F065
:10547000200020605120C4F8FC03206940F0200087
:10548000206100BF00BF00BF206840F02000206006
:10549000206840F480702060EF20C4F8FC0320698D
:1054A00040F02000206100BF00BF00BF206840F036
:1054B00020002060206840F480702060206940F463
:1054C00000702061206940F480702061206840F005
:1054D000200020605220C4F8FC03206940F0200026
:1054E000206100BF00BF00BF206840F020002060A6
:1054F000206840F480702060C4F8FC53206940F0BC
:105500002000206100BF00BF00BF206840F02000E5
:105510002060206840F480702060206940F40070B2
:105520002061206940F480702061206840F02000F4
:1055300020605320C4F8FC03206940F02000206163
:1055400000BF00BF00BF206840F02000206020683E
:1055500040F48070206040F23F10C4F8FC032069E2
:1055600040F02000206100BF00BF00BF206840F075
:1055700020002060206840F480702060206940F4A2
:1055800000702061206940F480702061206840F044
:10559000200020606020C4F8FC03206940F0200057
:1055A000206100BF00BF00BF206840F020002060E5
:1055B000206840F4807020604FF41C50C4F8FC0355
:1055C000206940F02000206100BF00BF00BF2068BC
:1055D00040F020002060206840F480702060206946
:1055E00040F400702061206940F4807020612068E0
:1055F00040F0200020606120C4F8FC03206940F0E6
:105600002000206100BF00BF00BF206840F02000E4
:105610002060206840F4807020600120C4F8FC0302
:10562000206940F02000206100BF00BF00BF20685B
:1056300040F020002060206840F4807020602069E5
:1056400040F400702061206940F48070206120687F
:1056500040F0200020606A20C4F8FC03206940F07C
:105660002000206100BF00BF00BF206840F0200084
:105670002060206840F480702060C4F8FC532069EA
:1056800040F02000206100BF00BF00BF206840F054
:1056900020002060206840F480702060206940F481
:1056A00000702061206940F480702061206840F023
:1056B000200020608020C4F8FC03206940F0200016
:1056C000206100BF00BF00BF206840F020002060C4
:1056D000206840F480702060C4F8FC53206940F0DA
:1056E0002000206100BF00BF00BF206840F0200004
:1056F0002060206840F480702060206940F40070D1
:105700002061206940F480702061206840F0200012
:1057100020608120C4F8FC03206940F02000206153
:1057200000BF00BF00BF206840F02000206020685C
:1057300040F480702060C4F8FC53206940F02000E1
:10574000206100BF00BF00BF206840F02000206043
:10575000206840F480702060206940F4007020616F
:10576000206940F480702061206840F020002060B3
:105770008220C4F8FC03206940F02000206100BFB3
:1057800000BF00BF206840F020002060206840F487
:1057900080702060C4F8FC53206940F02000206134
:1057A00000BF00BF00BF206840F0200020602068DC
:1057B00040F480702060206940F40070206120690E
:1057C00040F480702061206840F020002060832039
:1057D000C4F8FC03206940F02000206100BF00BF36
:1057E00000BF206840F020002060206840F48070F6
:1057F0002060C4F8FC53206940F02000206100BF05
:1058000000BF00BF206840F020002060206840F406
:1058100080702060206940F400702061206940F4AD
:1058200080702061206840F0200020608420C4F84F
:10583000FC03206940F02000206100BF00BF00BFD2
:10584000206840F020002060206840F480702060D4
:10585000C4F8FC53206940F02000206100BF00BF65
:1058600000BF206840F020002060206840F4807075
:105870002060206940F400702061206940F480704D
:105880002061206840F0200020608520C4F8FC03DF
:10589000206940F02000206100BF00BF00BF2068E9
:1058A00040F020002060206840F480702060C4F840
:1058B000FC53206940F02000206100BF00BF00BF02
:1058C000206840F020002060206840F48070206054
:1058D000206940F400702061206940F480702061EC
:1058E000206840F0200020609020C4F8FC0320696C
:1058F00040F02000206100BF00BF00BF206840F0E2
:1059000020002060206840F480702060C4F8FC73A0
:10591000206940F02000206100BF00BF00BF206868
:1059200040F020002060206840F4807020602069F2
:1059300040F400702061206940F48070206120688C
:1059400040F0200020609220C4F8FC03206940F061
:105950002000206100BF00BF00BF206840F0200091
:105960002060206840F480702060C4F8FC532069F7
:1059700040F02000206100BF00BF00BF206840F061
:1059800020002060206840F480702060206940F48E
:1059900000702061206940F480702061206840F030
:1059A000200020609320C4F8FC03206940F0200010
:1059B000206100BF00BF00BF206840F020002060D1
:1059C000206840F480702060C4F8FC13206940F027
:1059D0002000206100BF00BF00BF206840F0200011
:1059E0002060206840F480702060206940F40070DE
:1059F0002061206940F480702061206840F0200020
:105A000020609520C4F8FC03206940F0200020614C
:105A100000BF00BF00BF206840F020002060206869
:105A200040F4807020604FF48870C4F8FC03206953
:105A300040F02000206100BF00BF00BF206840F0A0
:105A400020002060206840F480702060206940F4CD
:105A500000702061206940F480702061206840F06F
:105A6000200020609720C4F8FC03206940F020004B
:105A7000206100BF00BF00BF206840F02000206010
:105A8000206840F480702060C4F8FC53206940F026
:105A90002000206100BF00BF00BF206840F0200050
:105AA0002060206840F480702060206940F400701D
:105AB0002061206940F480702061206840F020005F
:105AC00020609820C4F8FC03206940F02000206189
:105AD00000BF00BF00BF206840F0200020602068A9
